S00C000067616D652E737265637E
S113000071C000008FC000008DC000008BC00000D4
S113001089C0000087C0000085C0000083C00000C4
S113002081C000007FC000007DC000007BC00000D4
S113003079C0000077C0000075C0000073C00000E4
S113004071C000006FC000006DC000006BC00000F4
S113005069C0000067C0000065C0000063C0000004
S113006061C00000D6C3000015C400005BC00000DE
S113007059C0000057C0000055C0000053C0000024
S113008051C000004FC000004DC000004BC0000034
S11300904CC400008BC4000045C0000043C00000F5
S11300A041C000003FC000003DC000003BC0000054
S11300B039C0000037C0000035C0000033C0000064
S11300C031C000002FC000002DC00000BAC40000E1
S11300D0F9C4000027C0000040C500007FC500002F
S11300E021C0000011241FBECFEFD1E2DEBFCDBF7F
S11300F000E00CBF12E0A0E0B2E0EEE1F5E100E0C8
S11301000BBF02C007900D92A23EB107D9F723E0BE
S1130110A2EEB2E001C01D92AE3FB207E1F7A8D053
S11301200C948D0A6DCFFC01808191810895FC01AE
S1130130828193810895FC01268137812F5F3F4F8F
S11301403783268308950F931F93CF93DF938C01F6
S113015088E090E0CAD5EC0162E070E0C801ABD55C
S1130160998388839B838A831F821E821D830C83C9
S1130170CE01DF91CF911F910F9108950F931F939B
S1130180CF93DF938C01EB01FC0130812181A881A5
S1130190B98182819381918380838A819B819983B0
S11301A088838681978118161906BCF4432F522F31
S11301B020E030E0FA0181919191AF018D939D93FC
S11301C08E819F8101969F838E832F5F3F4FF8011D
S11301D086819781281739076CF38A819B819983DB
S11301E08883F8018081918118D6C80116D6CE0182
S11301F0DF91CF911F910F9108950F931F93CF9388
S1130200DF938C01FC0186819781C2969CDFEC010F
S1130210BC01C801B3DFCE01DF91CF911F910F91D3
S113022008950F931F93CF93DF93EC018B012E81DD
S11302303F818C819D812817390711F4CE01DDDFC0
S1130240EE81FF81EE0FFF1F8A819B81E80FF91F6A
S1130250118300838E819F8101969F838E838A817F
S11302609B8199838883DF91CF911F910F9108958A
S1130270CF93DF9300D01F92CDB7DEB740E856E9A5
S113028068E970E080E08CD178948FEF81B982B90D
S11302908DEF82B981E692E09F938F934ED68AE0E8
S11302A090E051DF40DF0F900F90FC0120813181FD
S11302B0232B09F455C1CBC021913191232B09F093
S11302C0C6C08E179F07C1F7A8C08091E202909123
S11302D0E30201969093E3028093E20288E792E0BE
S11302E03FD685E090E02FDF7C018AE090E02BDFB1
S11302F09A838983C70117DF9C838B8389819A81C1
S113030012DF8C0183E090E0EB81FC819183808398
S1130310C70111DF84E090E0EB81FC819383828349
S1130320C70109DF69817A81C70128DFF8010190DB
S1130330F081E02DFA83E9831F9283E08F938BE8A9
S113034092E09F938F93F9D5FA81FF9329812F939C
S113035086E992E09F938F93F0D50FB6F894DEBFB1
S11303600FBECDBFE981FA81339719F5F8010280F8
S1130370F381E02DFA83E9831F9284E08F938BE865
S113038092E09F938F93D9D5FA81FF9329812F937C
S113039086E992E09F938F93D0D50FB6F894DEBF91
S11303A00FBECDBFE981FA81349731F480E090E04B
S11303B005C08CE192E002C08CE192E02091E2025F
S11303C03091E3022F5F3F4F3093E3022093E20228
S11303D0009761F09F938F9381EA92E09F938F93AC
S11303E0ACD50F900F900F900F9007C08DEA92E05C
S11303F09F938F93A2D50F900F908091E3028F93D8
S11304008091E2028F9380EC92E09F938F9395D535
S11304100F900F900F900F90FFCF8091E202909178
S1130420E30201969093E3028093E20285E090E078
S11304308ADE9A83898360E070E0F3DE89819A81A1
S113044076DEFC0180819181892BC1F50CC08091FD
S1130450E2029091E30201969093E3028093E20218
S113046084E592E0B7CF8091E2029091E302019695
S11304709093E3028093E20285E090E064DE9A8345
S1130480898361E070E0CDDE89819A8150DEFC01D0
S11304900190F081E02DFA83E983FF93EF938FECD1
S11304A092E09F938F9349D50F900F900F900F90E8
S11304B029813A812130310589F50CC08091E2020D
S11304C09091E30201969093E3028093E20284E523
S11304D092E080CF8091E2029091E30201969093A2
S11304E0E3028093E20285E090E02DDE9A83898323
S11304F061E070E096DE62E070E089819A8191DECD
S113050063E070E089819A818CDE89819A810FDEB3
S1130510FC01808191810197C9F00CC08091E202B5
S11305209091E30201969093E3028093E20287E4C0
S113053092E050CF8091E2029091E3020196909371
S1130540E3028093E20283E392E044CF82819381C9
S1130550029781F784819581039709F4B6CEEACF97
S1130560FC0132964496A8CECF93DF931F92CDB769
S1130570DEB7BE016F5F7F4F87E693E066D08111DF
S1130580F8CF898190E00F90DF91CF910895682F83
S11305908091EA039091EB0324D180E090E00895E8
S11305A04F925F926F927F928F929F92AF92CF926F
S11305B0EF920F931F93CF93C82F2A013B0187E635
S11305C093E03AD084EE92E037D01F921F9284EEEB
S11305D092E09F938F930F2EF7E68F2EF3E09F2EDA
S11305E0F02DA12CC12C0F2EF3E0EF2EF02D00E006
S11305F011EE20E030E0B301A2018C2F70D0909373
S1130600EB038093EA03E8EFF3E086E092E0918362
S11306108083938382830F900F900F900F90CF91DC
S11306201F910F91EF90CF90AF909F908F907F90FC
S11306306F905F904F900895FC01E058FF4F108237
S113064031961082319610820895FC01EE57FF4FC7
S113065020812223F9F031972081DC01A20FB11D02
S11306602C91DB012C93208130E02F5F3F4F2F77BB
S11306703078332334F42150310920683F6F2F5FE1
S11306803F4F2083FC01EE57FF4F808181508083D0
S113069080E0089581E00895FC01EE57FF4F40810A
S11306A04423DCF03297208130E0DC01A20FB31F39
S11306B06C932F5F3F4F2F773078332334F42150DE
S11306C0310920683F6F2F5F3F4F2083FC01EE57B5
S11306D0FF4F4F5F408380E0089582E008954F927A
S11306E05F926F927F928F929F92DF92EF92FF922E
S11306F00F931F93CF93DF9300D01F92CDB7DEB734
S1130700D82E49835A836B837C832801390188E07E
S113071090E0EBD27C018D2D90E0880F991FFC01B5
S1130720E451FC4FF182E082FC01EC5EFD4F8081DC
S11307309181D70111969C938E938D899E891396EE
S11307409C938E93129715969C928E9214978F89F0
S1130750988D17969C938E931697DFB6F894ED9127
S1130760FC91119736978081826080838D909C9054
S1130770D301C201880F991FAA1FBB1F880F991F9D
S1130780AA1FBB1F9C01AD01220F331F441F551F1D
S113079069817A818B819C816CD22150F4013297DA
S11307A02083D701ED91FC911197359788E98083D7
S11307B0ED91FC91349786E08083DFBEC7010F90F2
S11307C00F900F900F90DF91CF911F910F91FF9099
S11307D0EF90DF909F908F907F906F905F904F90FD
S11307E00895CF93DF93FC0182819381009759F0A0
S11307F0EF0152DF811109C0E881F98135979081B9
S11308009062908303C082E001C082E0DF91CF91C7
S113081008951F920F920FB60F9211240BB60F92E8
S11308202F933F934F935F936F937F938F939F93F4
S1130830AF93BF93CF93EF93FF93E091EC03F091C9
S1130840ED03309799F0C091C6006C2F8481958197
S113085023DF8091EC039091ED03DC011696ED917A
S1130860FC911797309711F06C2F1995FF91EF9128
S1130870CF91BF91AF919F918F917F916F915F9134
S11308804F913F912F910F900BBE0F900FBE0F9081
S11308901F9018951F920F920FB60F9211240BB64A
S11308A00F922F933F934F935F936F937F938F9305
S11308B09F93AF93BF93EF93FF93CF93DF931F92D5
S11308C0CDB7DEB7E091EC03F091ED03309791F0F2
S11308D0BE016F5F7F4F82819381B7DE811104C0B7
S11308E089818093C6000BC0E1ECF0E080818F7DAC
S11308F0808305C0E1ECF0E080818F7D80830F90E0
S1130900DF91CF91FF91EF91BF91AF919F918F9123
S11309107F916F915F914F913F912F910F900BBEFB
S11309200F900FBE0F901F9018951F920F920FB645
S11309300F9211240BB60F922F933F934F935F9313
S11309406F937F938F939F93AF93BF93CF93EF93C3
S1130950FF93E091EE03F091EF03309799F0C0918B
S1130960CE006C2F8481958197DE8091EE03909167
S1130970EF03DC011696ED91FC911797309711F077
S11309806C2F1995FF91EF91CF91BF91AF919F91EA
S11309908F917F916F915F914F913F912F910F9024
S11309A00BBE0F900FBE0F901F9018951F920F92C1
S11309B00FB60F9211240BB60F922F933F934F93C0
S11309C05F936F937F938F939F93AF93BF93EF93B3
S11309D0FF93CF93DF931F92CDB7DEB7E091EE0381
S11309E0F091EF03309791F0BE016F5F7F4F8281EA
S11309F093812BDE811104C089818093CE000BC0CA
S1130A00E9ECF0E080818F7D808305C0E9ECF0E0C3
S1130A1080818F7D80830F90DF91CF91FF91EF9143
S1130A20BF91AF919F918F917F916F915F914F9102
S1130A303F912F910F900BBE0F900FBE0F901F9000
S1130A4018951F920F920FB60F9211240BB60F92A6
S1130A502F933F934F935F936F937F938F939F93C2
S1130A60AF93BF93CF93EF93FF93E091F003F09193
S1130A70F103309799F0C091D6006C2F8481958151
S1130A800BDE8091F0039091F103DC011696ED9159
S1130A90FC911797309711F06C2F1995FF91EF91F6
S1130AA0CF91BF91AF919F918F917F916F915F9102
S1130AB04F913F912F910F900BBE0F900FBE0F904F
S1130AC01F9018951F920F920FB60F9211240BB618
S1130AD00F922F933F934F935F936F937F938F93D3
S1130AE09F93AF93BF93EF93FF93CF93DF931F92A3
S1130AF0CDB7DEB7E091F003F091F103309791F0B8
S1130B00BE016F5F7F4F828193819FDD811104C09D
S1130B1089818093D6000BC0E1EDF0E080818F7D68
S1130B20808305C0E1EDF0E080818F7D80830F90AC
S1130B30DF91CF91FF91EF91BF91AF919F918F91F1
S1130B407F916F915F914F913F912F910F900BBEC9
S1130B500F900FBE0F901F9018951F920F920FB613
S1130B600F9211240BB60F922F933F934F935F93E1
S1130B706F937F938F939F93AF93BF93CF93EF9391
S1130B80FF93E091F203F091F303309799F0C09151
S1130B9036016C2F848195817FDD8091F2039091E1
S1130BA0F303DC011696ED91FC911797309711F041
S1130BB06C2F1995FF91EF91CF91BF91AF919F91B8
S1130BC08F917F916F915F914F913F912F910F90F2
S1130BD00BBE0F900FBE0F901F9018951F920F928F
S1130BE00FB60F9211240BB60F922F933F934F938E
S1130BF05F936F937F938F939F93AF93BF93EF9381
S1130C00FF93CF93DF931F92CDB7DEB7E091F2034A
S1130C10F091F303309791F0BE016F5F7F4F8281B3
S1130C20938113DD811104C08981809336010BC047
S1130C30E1E3F1E080818F7D808305C0E1E3F1E0B1
S1130C4080818F7D80830F90DF91CF91FF91EF9111
S1130C50BF91AF919F918F917F916F915F914F91D0
S1130C603F912F910F900BBE0F900FBE0F901F90CE
S1130C701895A1E21A2EAA1BBB1BFD010DC0AA1FC9
S1130C80BB1FEE1FFF1FA217B307E407F50720F0F1
S1130C90A21BB30BE40BF50B661F771F881F991F6C
S1130CA01A9469F760957095809590959B01AC01B5
S1130CB0BD01CF0108950F931F93CF93DF93869FB8
S1130CC08001879F100D969F100D1124C8010DD02F
S1130CD0EC01009721F0A80160E070E027D1CE017B
S1130CE0DF91CF911F910F9108950F931F93CF938D
S1130CF0DF938230910510F482E090E0E091F603F6
S1130D00F091F70320E030E0A0E0B0E0309719F173
S1130D10408151810281138148175907C8F0841713
S1130D20950769F4109731F012960C931297139665
S1130D301C9327C00093F6031093F70322C02115D8
S1130D40310519F04217530718F49A01BD01EF0158
S1130D50DF01F801DBCF21153105F9F0281B390B30
S1130D602430310580F48A819B816115710521F05D
S1130D70FB019383828304C09093F7038093F6036B
S1130D80FE01329644C0FE01E20FF31F819391935A
S1130D9022503109398328833AC02091F4033091D9
S1130DA0F503232B41F42091020230910302309386
S1130DB0F5032093F40320910002309101022115E0
S1130DC0310541F42DB73EB740910402509105021C
S1130DD0241B350BE091F403F091F503E217F307BC
S1130DE0A0F42E1B3F0B2817390778F0AC014E5F97
S1130DF05F4F2417350748F04E0F5F1F5093F503DC
S1130E004093F4038193919302C0E0E0F0E0CF01BA
S1130E10DF91CF911F910F910895CF93DF930097A6
S1130E2009F481C0FC01329713821282A091F60367
S1130E30B091F703109781F420813181820F931FC1
S1130E402091F4033091F5032817390751F5F093F5
S1130E50F503E093F40367C0ED0120E030E0CE1722
S1130E60DF0740F44A815B819E0141155105F1F091
S1130E70EA01F5CFD383C28340815181840F951F4A
S1130E80C817D90759F488819981840F951F029650
S1130E90918380838A819B81938382832115310589
S1130EA029F4F093F703E093F6033DC0E901FB83D3
S1130EB0EA8349915991C40FD51FEC17FD0761F4DA
S1130EC080819181840F951F0296E901998388831B
S1130ED0828193819B838A83E0E0F0E012968D9176
S1130EE09C911397009719F0FD01DC01F7CF8D91C8
S1130EF09C9111979D012E5F3F4F820F931F20916C
S1130F00F4033091F5032817390769F4309729F46D
S1130F101092F7031092F60302C013821282B09368
S1130F20F503A093F403DF91CF910895DC0101C090
S1130F306D9341505040E0F70895CF93DF93CDB7C0
S1130F40DEB7AE014A5F5F4FFA0161917191AF0163
S1130F508091FA039091FB0333D0DF91CF910895F0
S1130F600F931F93CF93DF93E091FA03F091FB0368
S1130F70238121FF1BC08C01D0E0C0E0F8018191E6
S1130F808F016091FA037091FB03DB011896ED91D8
S1130F90FC911997882331F01995892B79F3DFEFA8
S1130FA0CFEFECCF8AE01995892B19F08FEF9FEFE3
S1130FB002C08D2F9C2FDF91CF911F910F91089527
S1130FC02F923F924F925F926F927F928F929F9255
S1130FD0AF92BF92CF92DF92EF92FF920F931F9343
S1130FE0CF93DF93CDB7DEB72B970FB6F894DEBF60
S1130FF00FBECDBF6C017B018A01FC0117821682F2
S1131000838181FFBFC1CE0101963C01F60193812A
S1131010F70193FD859193FF81917F01882309F462
S1131020ADC1853239F493FD859193FF81917F01A0
S1131030853221F4B60190E0D6D1E8CF912C212C51
S1131040312CFFE1F315D8F08B3279F038F480328B
S113105079F08332A1F4232D20611DC08D3261F01B
S1131060803369F4232D216016C0832D8260382ECD
S1131070E32DE4603E2E2AC0F32DF8601DC037FC3A
S11310802DC020ED280F2A3040F08E32B9F436FC02
S113109075C1232D2064322E19C036FE06C08AE0A5
S11310A0989E200D1124922E11C0EAE02E9E200D50
S11310B01124222EF32DF0623F2E08C08C3621F429
S11310C0832D8068382E02C0883641F4F70193FDE1
S11310D0859193FF81917F018111B3CF982F9F7DDB
S11310E09554933028F40C5F1F4F9FE399830DC0F0
S11310F0833631F0833771F0833509F055C020C051
S1131100F801808189830E5F1F4F88248394912C7A
S1131110530112C02801F2E04F0E511CF801A080C7
S1131120B18036FE03C0692D70E002C06FEF7FEF1F
S1131130C5014ED14C018201F32DFF773F2E15C01E
S1131140280122E0420E511CF801A080B18036FE35
S113115003C0692D70E002C06FEF7FEFC5012DD190
S11311604C01F32DF0683F2E820133FC19C0822D0F
S113117090E088169906A0F4B60180E290E033D19D
S11311802A94F5CFF50137FC859137FE81915F01F3
S1131190B60190E028D121102A9421E0821A910806
S11311A08114910479F7E1C0843611F0893639F558
S11311B0F80137FE07C060817181828193810C5FE1
S11311C01F4F08C060817181072E000C880B990B9A
S11311D00E5F1F4FF32DFF763F2E97FF09C09095AA
S11311E08095709561957F4F8F4F9F4FF0683F2E8C
S11311F02AE030E0A30133D1882E861844C0853715
S113120031F4232D2F7EB22E2AE030E025C0932D19
S1131210997FB92E8F36C1F018F4883579F0AEC0B5
S1131220803719F0883721F0A9C0E92FE061BE2E7C
S1131230B4FE0DC0FB2DF460BF2E09C034FE0AC0FD
S1131240292F2660B22E06C028E030E005C020E138
S113125030E002C020E132E0F801B7FE07C060814F
S11312607181828193810C5F1F4F06C060817181FF
S113127080E090E00E5F1F4FA301F1D0882E861806
S1131280FB2DFF773F2E36FE0DC0232D2E7FA22E81
S1131290891458F434FE0BC032FC09C0832D8E7EB1
S11312A0A82E05C0B82CA32C03C0B82C01C0B92C9F
S11312B0A4FE0FC0FE01E80DF11D8081803321F4EE
S11312C09A2D997EA92E09C0A2FE06C0B394B394A8
S11312D004C08A2D867809F0B394A3FC10C0A0FE44
S11312E006C0B21480F4280C922C9B180DC0B214C2
S11312F058F4B60180E290E076D0B394F8CFB214FB
S113130018F42B1802C0982C212CA4FE0FC0B6018F
S113131080E390E068D0A2FE16C0A1FC03C088E779
S113132090E002C088E590E0B6010CC08A2D867872
S113133051F0A1FE02C08BE201C080E2A7FC8DE265
S1131340B60190E050D0891430F4B60180E390E007
S11313504AD09A94F8CF8A94F301E80DF11D808164
S1131360B60190E040D08110F6CF222009F44ECE91
S1131370B60180E290E037D02A94F7CFF601868157
S1131380978102C08FEF9FEF2B960FB6F894DEBFC4
S11313900FBECDBFDF91CF911F910F91FF90EF90C2
S11313A0DF90CF90BF90AF909F908F907F906F9081
S11313B05F904F903F902F900895FC0105906150ED
S11313C070400110D8F7809590958E0F9F1F089557
S11313D0FC016150704001900110D8F78095909500
S11313E08E0F9F1F08950F931F93CF93DF93FB01DD
S11313F0238121FD03C08FEF9FEF2CC022FF16C075
S113140046815781248135814217530744F4A081D2
S1131410B1819D012F5F3F4F318320838C932681BF
S113142037812F5F3F4F3783268314C08B01EC0134
S1131430FB010084F185E02D1995892BE1F6D80193
S113144016968D919C911797019617969C938E935F
S11314501697CE01DF91CF911F910F910895FA0154
S1131460AA27283051F1203181F1E8946F936E7FDF
S11314706E5F7F4F8F4F9F4FAF4FB1E03ED0B4E0D0
S11314803CD0670F781F891F9A1FA11D680F791F11
S11314908A1F911DA11D6A0F711D811D911DA11D22
S11314A020D009F468943F912AE0269F1124301932
S11314B0305D3193DEF6CF010895462F4770405DCD
S11314C04193B3E00FD0C9F7F6CF462F4F70405D7C
S11314D04A3318F0495D31FD4052419302D0A9F7D7
S11314E0EACFB4E0A6959795879577956795BA95D1
S11314F0C9F700976105710508959B01AC010A2E97
S113150006945795479537952795BA95C9F7620F6D
S1111510731F841F951FA01D0895F894FFCF2C
S113151E0000FE0320000000000300000000C702CC
S113152EB4020000C600CE00D6003601656C656DAF
S113153E656E747320617265206E6F7420657175AB
S113154E616C00656C656D656E7420213D20657857
S113155E70656374656400656C656D656E742021D9
S113156E3D203100656C656D656E7420213D203023
S113157E000D49276D20696E207468652066756EAE
S113158E6374696F6E0A0D000D496D20696E2074C7
S113159E686520636F7079536571000D56616C3107
S11315AE3A2025640A000D56616C323A2025640AED
S11315BE006572726F723A2025730A0D00414C4C0D
S11315CE205445535453205041535345440A0D005F
S11315DE54657374732072756E3A2025640A000D77
S11315EE76616C756520696E20746573742025644C
S10515FE0A00DD
S9030000FC
