S00C000067616D652E737265637E
S113000071C000008FC000008DC000008BC00000D4
S113001089C0000087C0000085C0000083C00000C4
S113002081C000007FC000007DC000007BC00000D4
S113003079C0000077C0000075C0000073C00000E4
S113004071C000006FC000006DC000006BC00000F4
S113005069C0000067C0000065C0000063C0000004
S113006061C00000D9C2000018C300005BC00000DA
S113007059C0000057C0000055C0000053C0000024
S113008051C000004FC000004DC000004BC0000034
S11300904FC300008EC3000045C0000043C00000F1
S11300A041C000003FC000003DC000003BC0000054
S11300B039C0000037C0000035C0000033C0000064
S11300C031C000002FC000002DC00000BDC30000DF
S11300D0FCC3000027C0000043C4000082C4000029
S11300E021C0000011241FBECFEFD1E2DEBFCDBF7F
S11300F000E00CBF12E0A0E0B2E0E4E2F3E100E0D3
S11301000BBF02C007900D92A03AB107D9F723E0C4
S1130110A0EAB2E001C01D92AC3BB207E1F77DD08A
S11301200C9490096DCF0F931F93CF93DF938C01A1
S113013088E090E0DDD4EC0162E070E0C801BED458
S1130140998388839B838A831F821E82CE01DF91D9
S1130150CF911F910F910895CF92DF92EF92FF926A
S11301600F931F93CF93DF937C01EB01DC01CC90C1
S11301701196DC9011970881198117968C91179725
S11301808F9316968C918F938CE192E09F938F932B
S1130190D7D50F900F900F900F90F701868197811C
S11301A09923CCF0EC2DFD2D20E030E0819191914C
S11301B0D8018D939D938D018E819F8101969F839C
S11301C08E832F5F3F4FD70116968D919C91179781
S11301D0821793075CF7F70120813181A281B381F3
S11301E08D919C91D9018D939C93E881F981AA8189
S11301F0BB818D919C9191838083F7018081918152
S11302000FD5C7010DD5CE01DF91CF911F910F916D
S1130210FF90EF90DF90CF90089540E856E968E9A9
S113022070E080E0C0D0789481E392E09CD585E0D2
S113023090E079DFEC018AE090E075DF7C01E881F1
S1130240F981DC010D911C9180E090E08193919300
S11302502E813F812F5F3F4F3F832E830196853050
S11302609105A1F7CA80DB80B701CE0175DF2C2C84
S11302703D2C5801BAE0AB0EB11C0F2EF4E44F2E06
S1130280F2E05F2EF02D0F2EFFE46F2EF2E07F2EB2
S1130290F02DF101819091901F01D801CD90DD9056
S11302A08D019F928F925F924F924AD5DF92CF92A7
S11302B07F926F9245D5EDB7FEB738960FB6F89496
S11302C0FEBF0FBEEDBF8C149D0449F5E881F98192
S11302D0AA81BB818D919C9191838083D7012D91BB
S11302E03C91119712960D90BC91A02D8D919C91EB
S11302F0F90191838083A016B10659F627C0809135
S1130300A1028F938091A0028F938AE592E09F933C
S11303108F9316D50F900F900F900F90FFCF809171
S1130320A0029091A10201969093A1028093A00251
S113033089E692E09F938F9380E892E09F938F9356
S1130340FFD40F900F900F900F90D9CF8091A002FF
S11303509091A10201969093A1028093A0028CE84F
S113036092E09F938F93ECD40F900F90C8CFCF93CC
S1130370DF931F92CDB7DEB7BE016F5F7F4F85E27B
S113038093E066D08111F8CF898190E00F90DF91DE
S1130390CF910895682F8091A8039091A90324D147
S11303A080E090E008954F925F926F927F928F92D7
S11303B09F92AF92CF92EF920F931F93CF93C82F38
S11303C02A013B0185E293E03AD082EA92E037D0F9
S11303D01F921F9282EA92E09F938F930F2EF5E271
S11303E08F2EF3E09F2EF02DA12CC12C0F2EF3E0C5
S11303F0EF2EF02D00E011EE20E030E0B301A20179
S11304008C2F70D09093A9038093A803E6EBF3E0BC
S113041086E092E091838083938382830F900F9090
S11304200F900F90CF911F910F91EF90CF90AF90BD
S11304309F908F907F906F905F904F900895FC01F4
S1130440E058FF4F10823196108231961082089541
S1130450FC01EE57FF4F20812223F9F031972081D0
S1130460DC01A20FB11D2C91DB012C93208130E023
S11304702F5F3F4F2F773078332334F421503109E5
S113048020683F6F2F5F3F4F2083FC01EE57FF4FE3
S113049080818150808380E0089581E00895FC018B
S11304A0EE57FF4F40814423DCF03297208130E047
S11304B0DC01A20FB31F6C932F5F3F4F2F7730786F
S11304C0332334F42150310920683F6F2F5F3F4FAD
S11304D02083FC01EE57FF4F4F5F408380E0089577
S11304E082E008954F925F926F927F928F929F92D3
S11304F0DF92EF92FF920F931F93CF93DF9300D07D
S11305001F92CDB7DEB7D82E49835A836B837C8381
S11305102801390188E090E0EBD27C018D2D90E038
S1130520880F991FFC01E655FC4FF182E082FC0123
S1130530EC5EFD4F80819181D70111969C938E933F
S11305408D899E8913969C938E93129715969C92EF
S11305508E9214978F89988D17969C938E931697E5
S1130560DFB6F894ED91FC91119736978081826003
S113057080838D909C90D301C201880F991FAA1F7C
S1130580BB1F880F991FAA1FBB1F9C01AD01220F1F
S1130590331F441F551F69817A818B819C816CD2E2
S11305A02150F40132972083D701ED91FC911197EA
S11305B0359788E98083ED91FC91349786E08083B8
S11305C0DFBEC7010F900F900F900F90DF91CF9176
S11305D01F910F91FF90EF90DF909F908F907F90ED
S11305E06F905F904F900895CF93DF93FC018281C9
S11305F09381009759F0EF0152DF811109C0E8811E
S1130600F981359790819062908303C082E001C0A4
S113061082E0DF91CF9108951F920F920FB60F924F
S113062011240BB60F922F933F934F935F936F93C5
S11306307F938F939F93AF93BF93CF93EF93FF9346
S1130640E091AA03F091AB03309799F0C091C600F2
S11306506C2F8481958123DF8091AA039091AB0351
S1130660DC011696ED91FC911797309711F06C2FE1
S11306701995FF91EF91CF91BF91AF919F918F9178
S11306807F916F915F914F913F912F910F900BBE8E
S11306900F900FBE0F901F9018951F920F920FB6D8
S11306A00F9211240BB60F922F933F934F935F93A6
S11306B06F937F938F939F93AF93BF93EF93FF9326
S11306C0CF93DF931F92CDB7DEB7E091AA03F091E9
S11306D0AB03309791F0BE016F5F7F4F82819381AE
S11306E0B7DE811104C089818093C6000BC0E1ECA0
S11306F0F0E080818F7D808305C0E1ECF0E08081B3
S11307008F7D80830F90DF91CF91FF91EF91BF9107
S1130710AF919F918F917F916F915F914F913F9195
S11307202F910F900BBE0F900FBE0F901F90189536
S11307301F920F920FB60F9211240BB60F922F93A4
S11307403F934F935F936F937F938F939F93AF9355
S1130750BF93CF93EF93FF93E091AC03F091AD037C
S1130760309799F0C091CE006C2F8481958197DEEB
S11307708091AC039091AD03DC011696ED91FC9150
S11307801797309711F06C2F1995FF91EF91CF9136
S1130790BF91AF919F918F917F916F915F914F9195
S11307A03F912F910F900BBE0F900FBE0F901F9093
S11307B018951F920F920FB60F9211240BB60F9239
S11307C02F933F934F935F936F937F938F939F9355
S11307D0AF93BF93EF93FF93CF93DF931F92CDB764
S11307E0DEB7E091AC03F091AD03309791F0BE0118
S11307F06F5F7F4F828193812BDE811104C08981D9
S11308008093CE000BC0E9ECF0E080818F7D808383
S113081005C0E9ECF0E080818F7D80830F90DF914B
S1130820CF91FF91EF91BF91AF919F918F917F9164
S11308306F915F914F913F912F910F900BBE0F904D
S11308400FBE0F901F9018951F920F920FB60F9224
S113085011240BB60F922F933F934F935F936F9393
S11308607F938F939F93AF93BF93CF93EF93FF9314
S1130870E091AE03F091AF03309799F0C091D600A8
S11308806C2F848195810BDE8091AE039091AF0330
S1130890DC011696ED91FC911797309711F06C2FAF
S11308A01995FF91EF91CF91BF91AF919F918F9146
S11308B07F916F915F914F913F912F910F900BBE5C
S11308C00F900FBE0F901F9018951F920F920FB6A6
S11308D00F9211240BB60F922F933F934F935F9374
S11308E06F937F938F939F93AF93BF93EF93FF93F4
S11308F0CF93DF931F92CDB7DEB7E091AE03F091B3
S1130900AF03309791F0BE016F5F7F4F8281938177
S11309109FDD811104C089818093D6000BC0E1ED75
S1130920F0E080818F7D808305C0E1EDF0E080817F
S11309308F7D80830F90DF91CF91FF91EF91BF91D5
S1130940AF919F918F917F916F915F914F913F9163
S11309502F910F900BBE0F900FBE0F901F90189504
S11309601F920F920FB60F9211240BB60F922F9372
S11309703F934F935F936F937F938F939F93AF9323
S1130980BF93CF93EF93FF93E091B003F091B10342
S1130990309799F0C09136016C2F848195817FDD69
S11309A08091B0039091B103DC011696ED91FC9116
S11309B01797309711F06C2F1995FF91EF91CF9104
S11309C0BF91AF919F918F917F916F915F914F9163
S11309D03F912F910F900BBE0F900FBE0F901F9061
S11309E018951F920F920FB60F9211240BB60F9207
S11309F02F933F934F935F936F937F938F939F9323
S1130A00AF93BF93EF93FF93CF93DF931F92CDB731
S1130A10DEB7E091B003F091B103309791F0BE01DD
S1130A206F5F7F4F8281938113DD811104C08981BF
S1130A30809336010BC0E1E3F1E080818F7D8083F8
S1130A4005C0E1E3F1E080818F7D80830F90DF9129
S1130A50CF91FF91EF91BF91AF919F918F917F9132
S1130A606F915F914F913F912F910F900BBE0F901B
S1130A700FBE0F901F901895A1E21A2EAA1BBB1B44
S1130A80FD010DC0AA1FBB1FEE1FFF1FA217B30756
S1130A90E407F50720F0A21BB30BE40BF50B661F6C
S1130AA0771F881F991F1A9469F760957095809530
S1130AB090959B01AC01BD01CF0108950F931F9345
S1130AC0CF93DF93869F8001879F100D969F100D13
S1130AD01124C8010DD0EC01009721F0A80160E0B9
S1130AE070E027D1CE01DF91CF911F910F9108952E
S1130AF00F931F93CF93DF938230910510F482E01C
S1130B0090E0E091B403F091B50320E030E0A0E080
S1130B10B0E0309719F14081518102811381481767
S1130B205907C8F08417950769F4109731F01296A5
S1130B300C93129713961C9327C00093B40310933D
S1130B40B50322C02115310519F04217530718F4D3
S1130B509A01BD01EF01DF01F801DBCF2115310559
S1130B60F9F0281B390B2430310580F48A819B81EC
S1130B706115710521F0FB019383828304C0909376
S1130B80B5038093B403FE01329644C0FE01E20F24
S1130B90F31F8193919322503109398328833AC0FA
S1130BA02091B2033091B303232B41F4209102022C
S1130BB0309103023093B3032093B20320910002D7
S1130BC0309101022115310541F42DB73EB7409112
S1130BD0040250910502241B350BE091B203F091FD
S1130BE0B303E217F307A0F42E1B3F0B28173907B2
S1130BF078F0AC014E5F5F4F2417350748F04E0F75
S1130C005F1F5093B3034093B2038193919302C047
S1130C10E0E0F0E0CF01DF91CF911F910F910895B3
S1130C20CF93DF93009709F481C0FC0132971382BC
S1130C301282A091B403B091B503109781F420817E
S1130C403181820F931F2091B2033091B30328178F
S1130C50390751F5F093B303E093B20367C0ED0194
S1130C6020E030E0CE17DF0740F44A815B819E012B
S1130C7041155105F1F0EA01F5CFD383C2834081D8
S1130C805181840F951FC817D90759F48881998118
S1130C90840F951F0296918380838A819B8193831D
S1130CA082832115310529F4F093B503E093B4034D
S1130CB03DC0E901FB83EA8349915991C40FD51FD3
S1130CC0EC17FD0761F480819181840F951F0296D2
S1130CD0E90199838883828193819B838A83E0E0FD
S1130CE0F0E012968D919C911397009719F0FD01F5
S1130CF0DC01F7CF8D919C9111979D012E5F3F4FA1
S1130D00820F931F2091B2033091B3032817390740
S1130D1069F4309729F41092B5031092B40302C019
S1130D2013821282B093B303A093B203DF91CF91E5
S1130D300895DC0101C06D9341505040E0F70895DF
S1130D40CF93DF93CDB7DEB7AE014A5F5F4FFA01B1
S1130D5061917191AF018091B8039091B90333D03F
S1130D60DF91CF9108950F931F93CF93DF93E09179
S1130D70B803F091B903238121FF1BC08C01D0E09B
S1130D80C0E0F80181918F016091B8037091B903BB
S1130D90DB011896ED91FC911997882331F0199590
S1130DA0892B79F3DFEFCFEFECCF8AE01995892B0C
S1130DB019F08FEF9FEF02C08D2F9C2FDF91CF9101
S1130DC01F910F9108952F923F924F925F926F92CD
S1130DD07F928F929F92AF92BF92CF92DF92EF92C7
S1130DE0FF920F931F93CF93DF93CDB7DEB72B976B
S1130DF00FB6F894DEBF0FBECDBF6C017B018A0134
S1130E00FC0117821682838181FFBFC1CE01019646
S1130E103C01F6019381F70193FD859193FF819144
S1130E207F01882309F4ADC1853239F493FD85919E
S1130E3093FF81917F01853221F4B60190E0D6D1F0
S1130E40E8CF912C212C312CFFE1F315D8F08B3213
S1130E5079F038F4803279F08332A1F4232D2061C3
S1130E601DC08D3261F0803369F4232D216016C0DA
S1130E70832D8260382EE32DE4603E2E2AC0F32DAC
S1130E80F8601DC037FC2DC020ED280F2A3040F03B
S1130E908E32B9F436FC75C1232D2064322E19C06C
S1130EA036FE06C08AE0989E200D1124922E11C0B1
S1130EB0EAE02E9E200D1124222EF32DF0623F2E07
S1130EC008C08C3621F4832D8068382E02C0883601
S1130ED041F4F70193FD859193FF81917F01811185
S1130EE0B3CF982F9F7D9554933028F40C5F1F4FF8
S1130EF09FE399830DC0833631F0833771F08335D6
S1130F0009F055C020C0F801808189830E5F1F4F0E
S1130F1088248394912C530112C02801F2E04F0ECF
S1130F20511CF801A080B18036FE03C0692D70E029
S1130F3002C06FEF7FEFC5014ED14C018201F32D4A
S1130F40FF773F2E15C0280122E0420E511CF80104
S1130F50A080B18036FE03C0692D70E002C06FEF3F
S1130F607FEFC5012DD14C01F32DF0683F2E820196
S1130F7033FC19C0822D90E088169906A0F4B601BE
S1130F8080E290E033D12A94F5CFF50137FC8591C6
S1130F9037FE81915F01B60190E028D121102A9497
S1130FA021E0821A91088114910479F7E1C0843612
S1130FB011F0893639F5F80137FE07C06081718177
S1130FC0828193810C5F1F4F08C060817181072E5D
S1130FD0000C880B990B0E5F1F4FF32DFF763F2EED
S1130FE097FF09C090958095709561957F4F8F4FBD
S1130FF09F4FF0683F2E2AE030E0A30133D1882EC2
S1131000861844C0853731F4232D2F7EB22E2AE072
S113101030E025C0932D997FB92E8F36C1F018F496
S1131020883579F0AEC0803719F0883721F0A9C02F
S1131030E92FE061BE2EB4FE0DC0FB2DF460BF2E7F
S113104009C034FE0AC0292F2660B22E06C028E04B
S113105030E005C020E130E002C020E132E0F801D8
S1131060B7FE07C060817181828193810C5F1F4F3D
S113107006C06081718180E090E00E5F1F4FA30184
S1131080F1D0882E8618FB2DFF773F2E36FE0DC03B
S1131090232D2E7FA22E891458F434FE0BC032FC6B
S11310A009C0832D8E7EA82E05C0B82CA32C03C0A6
S11310B0B82C01C0B92CA4FE0FC0FE01E80DF11D2F
S11310C08081803321F49A2D997EA92E09C0A2FE35
S11310D006C0B394B39404C08A2D867809F0B394FF
S11310E0A3FC10C0A0FE06C0B21480F4280C922CFD
S11310F09B180DC0B21458F4B60180E290E076D08B
S1131100B394F8CFB21418F42B1802C0982C212CE5
S1131110A4FE0FC0B60180E390E068D0A2FE16C022
S1131120A1FC03C088E790E002C088E590E0B60126
S11311300CC08A2D867851F0A1FE02C08BE201C05A
S113114080E2A7FC8DE2B60190E050D0891430F41F
S1131150B60180E390E04AD09A94F8CF8A94F301E0
S1131160E80DF11D8081B60190E040D08110F6CFEA
S1131170222009F44ECEB60180E290E037D02A94C2
S1131180F7CFF6018681978102C08FEF9FEF2B96F0
S11311900FB6F894DEBF0FBECDBFDF91CF911F9184
S11311A00F91FF90EF90DF90CF90BF90AF909F9002
S11311B08F907F906F905F904F903F902F90089505
S11311C0FC010590615070400110D8F7809590950E
S11311D08E0F9F1F0895FC01615070400190011013
S11311E0D8F7809590958E0F9F1F08950F931F93A6
S11311F0CF93DF93FB01238121FD03C08FEF9FEF8A
S11312002CC022FF16C046815781248135814217A4
S1131210530744F4A081B1819D012F5F3F4F318377
S113122020838C93268137812F5F3F4F378326831A
S113123014C08B01EC01FB010084F185E02D1995AC
S1131240892BE1F6D80116968D919C9117970196FA
S113125017969C938E931697CE01DF91CF911F9191
S11312600F910895FA01AA27283051F1203181F114
S1131270E8946F936E7F6E5F7F4F8F4F9F4FAF4F9A
S1131280B1E03ED0B4E03CD0670F781F891F9A1FAD
S1131290A11D680F791F8A1F911DA11D6A0F711D61
S11312A0811D911DA11D20D009F468943F912AE06D
S11312B0269F11243019305D3193DEF6CF01089555
S11312C0462F4770405D4193B3E00FD0C9F7F6CF86
S11312D0462F4F70405D4A3318F0495D31FD40524E
S11312E0419302D0A9F7EACFB4E0A69597958795E4
S11312F077956795BA95C9F70097610571050895C3
S11313009B01AC010A2E069457954795379527956E
S1131310BA95C9F7620F731F841F951FA01D089506
S1071320F894FFCF6B
S11313240000BC0320000000000300000000CA0108
S1131334B7010000C600CE00D60036010D20536963
S11313447A6520657175616C20746F3A2025640A8E
S1131354000D496D20696E2074686520636F70798F
S1131364536571000D56616C313A2025640A000DF1
S113137456616C323A2025640A00546573747320F0
S113138472756E3A2025640A00656C656D656E7429
S11313947320617265206E6F7420657175616C00D1
S11313A46572726F723A2025730A0D00414C4C2009
S11313B45445535453205041535345440A0D00009B
S9030000FC
