S00C000067616D652E737265637E
S113000071C000008FC000008DC000008BC00000D4
S113001089C0000087C0000085C0000083C00000C4
S113002081C000007FC000007DC000007BC00000D4
S113003079C0000077C0000075C0000073C00000E4
S113004071C000006FC000006DC000006BC00000F4
S113005069C0000067C0000065C0000063C0000004
S113006061C00000ACC30000EBC300005BC0000033
S113007059C0000057C0000055C0000053C0000024
S113008051C000004FC000004DC000004BC0000034
S113009022C4000061C4000045C0000043C0000049
S11300A041C000003FC000003DC000003BC0000054
S11300B039C0000037C0000035C0000033C0000064
S11300C031C000002FC000002DC0000090C400000B
S11300D0CFC4000027C0000016C5000055C50000AD
S11300E021C0000011241FBECFEFD1E2DEBFCDBF7F
S11300F000E00CBF12E0A0E0B2E0EAECF4E100E0C2
S11301000BBF02C007900D92A03DB107D9F723E0C1
S1130110A0EDB2E001C01D92AC3EB207E1F7B1D050
S11301200C94630A6DCFFC01808191810895FC01D8
S1130130828193810895FC01268137812F5F3F4F8F
S1130140378326830895FC01228133813183208300
S113015008950F931F93CF93DF938C0188E090E071
S11301609AD5EC0162E070E0C8017BD5998388835D
S11301709B838A831F821E82CE01DF91CF911F91C0
S11301800F9108950F931F93CF93DF938C01EB018D
S1130190DC013C9111962C91A881B981FC018681E6
S11301A097819923BCF0432F522F20E030E0FA01CD
S11301B081919191AF018D939D938E819F81019641
S11301C09F838E832F5F3F4FF8018681978182172B
S11301D093076CF7D8012D913C91119712960D90CD
S11301E0BC91A02D8D919C91F90191838083E8812C
S11301F0F981AA81BB818D919C9191838083D801DF
S11302008D919C91E0D5C801DED5CE01DF91CF91CF
S11302101F910F9108950F931F93CF93DF938C0138
S1130220FC0186819781C29694DFEC01BC01C80170
S1130230A9DFCE01DF91CF911F910F9108950F9304
S11302401F93CF93DF93EC018B012E813F818C812F
S11302509D812817390711F4CE01DDDFE881F9818A
S113026011830083888199810296998388838E8182
S11302709F8101969F838E83DF91CF911F910F9170
S1130280089540E856E968E970E080E05FD1789429
S11302908FEF81B982B98DEF82B981E692E09F93A5
S11302A08F9321D68AE090E054DF3DDF0F900F90CA
S11302B0FC0120813181232B09F428C1A0C02191A4
S11302C03191232B09F09BC08E179F07C1F7A3C060
S11302D08091D0029091D10201969093D1028093A3
S11302E0D00288E792E012D685E090E032DF3C014C
S11302F08AE090E02EDF2C01C30115DFEC01C2017E
S113030012DF1C018E01E12CF12CF801E192F19233
S11303108F01C30110DFFFEFEF1AFF0A85E0E81633
S1130320F10499F7C3010FDFB201C3012BDF8E0182
S1130330065F1F4F64960F2EFBE88F2EF2E09F2E70
S1130340F02D0F2EF6E9AF2EF2E0BF2EF02DF801BE
S1130350C190D1908F01F101E190F1901F01DF92E2
S1130360CF929F928F92BFD5FF92EF92BF92AF929E
S1130370BAD58DB79EB708960FB6F8949EBF0FBE38
S11303808DBFCE14DF0451F4C301DDDEC201DBDE18
S1130390C017D107E1F680E090E002C08CE192E062
S11303A02091D0023091D1022F5F3F4F3093D10280
S11303B02093D002009761F09F938F9381EA92E09B
S11303C09F938F9390D50F900F900F900F9007C02D
S11303D08DEA92E09F938F9386D50F900F90809132
S11303E0D1028F938091D0028F9380EC92E09F93FF
S11303F08F9379D50F900F900F900F90FFCF80912E
S1130400D0029091D10201969093D1028093D002B0
S113041084E592E0D1CF8091D0029091D1020196EF
S11304209093D1028093D00285E090E092DEEC01BB
S113043060E070E004DFCE017ADEFC01808191810E
S1130440892B61F08091D0029091D1020196909312
S1130450D1028093D00284E592E0AECF8091D002A5
S11304609091D10201969093D1028093D00285E0BD
S113047090E06FDEEC0161E070E0E1DECE0157DE7A
S1130480FC0180819181019761F08091D00290916B
S1130490D10201969093D1028093D00287E492E036
S11304A08BCF8091D0029091D10201969093D1028A
S11304B08093D00285E090E04CDEEC0161E070E0D6
S11304C0BEDE62E070E0CE01BADE63E070E0CE0131
S11304D0B6DECE012CDEFC0180819181019761F0B2
S11304E08091D0029091D10201969093D102809391
S11304F0D00283E392E060CF82819381029781F7F7
S113050084819581039709F4E3CEEACFFC01329606
S11305104496D5CECF93DF931F92CDB7DEB7BE01FD
S11305206F5F7F4F85E593E066D08111F8CF8981B5
S113053090E00F90DF91CF910895682F8091D803B8
S11305409091D90324D180E090E008954F925F9276
S11305506F927F928F929F92AF92CF92EF920F936E
S11305601F93CF93C82F2A013B0185E593E03AD02E
S113057082ED92E037D01F921F9282ED92E09F931A
S11305808F930F2EF5E58F2EF3E09F2EF02DA12CE7
S1130590C12C0F2EF3E0EF2EF02D00E011EE20E041
S11305A030E0B301A2018C2F70D09093D9038093D3
S11305B0D803E6EEF3E086E092E0918380839383B0
S11305C082830F900F900F900F90CF911F910F91F6
S11305D0EF90CF90AF909F908F907F906F905F90AF
S11305E04F900895FC01E058FF4F1082319610821D
S11305F0319610820895FC01EE57FF4F208122238B
S1130600F9F031972081DC01A20FB11D2C91DB019F
S11306102C93208130E02F5F3F4F2F7730783323A6
S113062034F42150310920683F6F2F5F3F4F2083FE
S1130630FC01EE57FF4F80818150808380E0089554
S113064081E00895FC01EE57FF4F40814423DCF024
S11306503297208130E0DC01A20FB31F6C932F5F2F
S11306603F4F2F773078332334F4215031092068F9
S11306703F6F2F5F3F4F2083FC01EE57FF4F4F5FCB
S1130680408380E0089582E008954F925F926F92D4
S11306907F928F929F92DF92EF92FF920F931F931C
S11306A0CF93DF9300D01F92CDB7DEB7D82E498306
S11306B05A836B837C832801390188E090E0EBD274
S11306C07C018D2D90E0880F991FFC01E652FC4FB0
S11306D0F182E082FC01EC5EFD4F80819181D701C3
S11306E011969C938E938D899E8913969C938E93D9
S11306F0129715969C928E9214978F89988D1796BF
S11307009C938E931697DFB6F894ED91FC91119714
S113071036978081826080838D909C90D301C20142
S1130720880F991FAA1FBB1F880F991FAA1FBB1FE1
S11307309C01AD01220F331F441F551F69817A812B
S11307408B819C816CD22150F40132972083D70194
S1130750ED91FC911197359788E98083ED91FC9197
S1130760349786E08083DFBEC7010F900F900F900F
S11307700F90DF91CF911F910F91FF90EF90DF9039
S11307809F908F907F906F905F904F900895CF933C
S1130790DF93FC0182819381009759F0EF0152DFCE
S11307A0811109C0E881F981359790819062908325
S11307B003C082E001C082E0DF91CF9108951F92CF
S11307C00F920FB60F9211240BB60F922F933F93F3
S11307D04F935F936F937F938F939F93AF93BF9345
S11307E0CF93EF93FF93E091DA03F091DB0330971B
S11307F099F0C091C6006C2F8481958123DF80918C
S1130800DA039091DB03DC011696ED91FC911797C6
S1130810309711F06C2F1995FF91EF91CF91BF9103
S1130820AF919F918F917F916F915F914F913F9184
S11308302F910F900BBE0F900FBE0F901F90189525
S11308401F920F920FB60F9211240BB60F922F9393
S11308503F934F935F936F937F938F939F93AF9344
S1130860BF93EF93FF93CF93DF931F92CDB7DEB780
S1130870E091DA03F091DB03309791F0BE016F5FF2
S11308807F4F82819381B7DE811104C08981809377
S1130890C6000BC0E1ECF0E080818F7D808305C051
S11308A0E1ECF0E080818F7D80830F90DF91CF9128
S11308B0FF91EF91BF91AF919F918F917F916F9134
S11308C05F914F913F912F910F900BBE0F900FBEF0
S11308D00F901F9018951F920F920FB60F9211242C
S11308E00BB60F922F933F934F935F936F937F9326
S11308F08F939F93AF93BF93CF93EF93FF93E09125
S1130900DC03F091DD03309799F0C091CE006C2F99
S11309108481958197DE8091DC039091DD03DC0175
S11309201696ED91FC911797309711F06C2F19954D
S1130930FF91EF91CF91BF91AF919F918F917F9153
S11309406F915F914F913F912F910F900BBE0F903C
S11309500FBE0F901F9018951F920F920FB60F9213
S113096011240BB60F922F933F934F935F936F9382
S11309707F938F939F93AF93BF93EF93FF93CF9303
S1130980DF931F92CDB7DEB7E091DC03F091DD0376
S1130990309791F0BE016F5F7F4F828193812BDE90
S11309A0811104C089818093CE000BC0E9ECF0E092
S11309B080818F7D808305C0E9ECF0E080818F7DAC
S11309C080830F90DF91CF91FF91EF91BF91AF9111
S11309D09F918F917F916F915F914F913F912F9153
S11309E00F900BBE0F900FBE0F901F9018951F9283
S11309F00F920FB60F9211240BB60F922F933F93C1
S1130A004F935F936F937F938F939F93AF93BF9312
S1130A10CF93EF93FF93E091DE03F091DF033097E0
S1130A2099F0C091D6006C2F848195810BDE809162
S1130A30DE039091DF03DC011696ED91FC9117978C
S1130A40309711F06C2F1995FF91EF91CF91BF91D1
S1130A50AF919F918F917F916F915F914F913F9152
S1130A602F910F900BBE0F900FBE0F901F901895F3
S1130A701F920F920FB60F9211240BB60F922F9361
S1130A803F934F935F936F937F938F939F93AF9312
S1130A90BF93EF93FF93CF93DF931F92CDB7DEB74E
S1130AA0E091DE03F091DF03309791F0BE016F5FB8
S1130AB07F4F828193819FDD811104C0898180935E
S1130AC0D6000BC0E1EDF0E080818F7D808305C00E
S1130AD0E1EDF0E080818F7D80830F90DF91CF91F5
S1130AE0FF91EF91BF91AF919F918F917F916F9102
S1130AF05F914F913F912F910F900BBE0F900FBEBE
S1130B000F901F9018951F920F920FB60F921124F9
S1130B100BB60F922F933F934F935F936F937F93F3
S1130B208F939F93AF93BF93CF93EF93FF93E091F2
S1130B30E003F091E103309799F0C09136016C2FF6
S1130B40848195817FDD8091E0039091E103DC0154
S1130B501696ED91FC911797309711F06C2F19951B
S1130B60FF91EF91CF91BF91AF919F918F917F9121
S1130B706F915F914F913F912F910F900BBE0F900A
S1130B800FBE0F901F9018951F920F920FB60F92E1
S1130B9011240BB60F922F933F934F935F936F9350
S1130BA07F938F939F93AF93BF93EF93FF93CF93D1
S1130BB0DF931F92CDB7DEB7E091E003F091E1033C
S1130BC0309791F0BE016F5F7F4F8281938113DD77
S1130BD0811104C08981809336010BC0E1E3F1E007
S1130BE080818F7D808305C0E1E3F1E080818F7D8A
S1130BF080830F90DF91CF91FF91EF91BF91AF91DF
S1130C009F918F917F916F915F914F913F912F9120
S1130C100F900BBE0F900FBE0F901F901895A1E27E
S1130C201A2EAA1BBB1BFD010DC0AA1FBB1FEE1F62
S1130C30FF1FA217B307E407F50720F0A21BB30BAD
S1130C40E40BF50B661F771F881F991F1A9469F729
S1130C5060957095809590959B01AC01BD01CF0185
S1130C6008950F931F93CF93DF93869F8001879FEF
S1130C70100D969F100D1124C8010DD0EC010097A2
S1130C8021F0A80160E070E027D1CE01DF91CF917F
S1130C901F910F9108950F931F93CF93DF93823089
S1130CA0910510F482E090E0E091E403F091E50313
S1130CB020E030E0A0E0B0E0309719F140815181AC
S1130CC00281138148175907C8F08417950769F4FE
S1130CD0109731F012960C93129713961C9327C019
S1130CE00093E4031093E50322C02115310519F0A4
S1130CF04217530718F49A01BD01EF01DF01F8010F
S1130D00DBCF21153105F9F0281B390B24303105CF
S1130D1080F48A819B816115710521F0FB01938325
S1130D20828304C09093E5038093E403FE0132962A
S1130D3044C0FE01E20FF31F8193919322503109C5
S1130D40398328833AC02091E2033091E303232BB3
S1130D5041F420910202309103023093E303209383
S1130D60E20320910002309101022115310541F482
S1130D702DB73EB74091040250910502241B350B58
S1130D80E091E203F091E303E217F307A0F42E1BD2
S1130D903F0B2817390778F0AC014E5F5F4F2417DB
S1130DA0350748F04E0F5F1F5093E3034093E2036F
S1130DB08193919302C0E0E0F0E0CF01DF91CF9105
S1130DC01F910F910895CF93DF93009709F481C089
S1130DD0FC01329713821282A091E403B091E503DF
S1130DE0109781F420813181820F931F2091E203B7
S1130DF03091E3032817390751F5F093E303E093A7
S1130E00E20367C0ED0120E030E0CE17DF0740F4D5
S1130E104A815B819E0141155105F1F0EA01F5CF4C
S1130E20D383C28340815181840F951FC817D9078A
S1130E3059F488819981840F951F02969183808348
S1130E408A819B81938382832115310529F4F09350
S1130E50E503E093E4033DC0E901FB83EA834991A0
S1130E605991C40FD51FEC17FD0761F4808191815E
S1130E70840F951F0296E901998388838281938167
S1130E809B838A83E0E0F0E012968D919C91139706
S1130E90009719F0FD01DC01F7CF8D919C9111971A
S1130EA09D012E5F3F4F820F931F2091E2033091EB
S1130EB0E3032817390769F4309729F41092E503FE
S1130EC01092E40302C013821282B093E303A0934E
S1130ED0E203DF91CF910895DC0101C06D9341508D
S1130EE05040E0F70895CF93DF93CDB7DEB7AE015E
S1130EF04A5F5F4FFA0161917191AF018091E803FC
S1130F009091E90333D0DF91CF9108950F931F930C
S1130F10CF93DF93E091E803F091E903238121FF6C
S1130F201BC08C01D0E0C0E0F80181918F01609179
S1130F30E8037091E903DB011896ED91FC91199790
S1130F40882331F01995892B79F3DFEFCFEFECCFBC
S1130F508AE01995892B19F08FEF9FEF02C08D2F2E
S1130F609C2FDF91CF911F910F9108952F923F9263
S1130F704F925F926F927F928F929F92AF92BF92A5
S1130F80CF92DF92EF92FF920F931F93CF93DF9351
S1130F90CDB7DEB72B970FB6F894DEBF0FBECDBF2B
S1130FA06C017B018A01FC0117821682838181FF17
S1130FB0BFC1CE0101963C01F6019381F70193FD77
S1130FC0859193FF81917F01882309F4ADC1853216
S1130FD039F493FD859193FF81917F01853221F44A
S1130FE0B60190E0D6D1E8CF912C212C312CFFE131
S1130FF0F315D8F08B3279F038F4803279F08332FB
S1131000A1F4232D20611DC08D3261F0803369F479
S1131010232D216016C0832D8260382EE32DE460D9
S11310203E2E2AC0F32DF8601DC037FC2DC020EDE4
S1131030280F2A3040F08E32B9F436FC75C1232DC6
S11310402064322E19C036FE06C08AE0989E200D18
S11310501124922E11C0EAE02E9E200D1124222E7E
S1131060F32DF0623F2E08C08C3621F4832D806866
S1131070382E02C0883641F4F70193FD859193FF21
S113108081917F018111B3CF982F9F7D9554933027
S113109028F40C5F1F4F9FE399830DC0833631F012
S11310A0833771F0833509F055C020C0F801808181
S11310B089830E5F1F4F88248394912C530112C09F
S11310C02801F2E04F0E511CF801A080B18036FED9
S11310D003C0692D70E002C06FEF7FEFC5014ED1F0
S11310E04C018201F32DFF773F2E15C0280122E029
S11310F0420E511CF801A080B18036FE03C0692D58
S113110070E002C06FEF7FEFC5012DD14C01F32DCC
S1131110F0683F2E820133FC19C0822D90E08816BE
S11311209906A0F4B60180E290E033D12A94F5CF79
S1131130F50137FC859137FE81915F01B60190E09E
S113114028D121102A9421E0821A91088114910453
S113115079F7E1C0843611F0893639F5F80137FEA4
S113116007C060817181828193810C5F1F4F08C029
S113117060817181072E000C880B990B0E5F1F4F45
S1131180F32DFF763F2E97FF09C0909580957095BB
S113119061957F4F8F4F9F4FF0683F2E2AE030E0DC
S11311A0A30133D1882E861844C0853731F4232D0A
S11311B02F7EB22E2AE030E025C0932D997FB92EE0
S11311C08F36C1F018F4883579F0AEC0803719F045
S11311D0883721F0A9C0E92FE061BE2EB4FE0DC00E
S11311E0FB2DF460BF2E09C034FE0AC0292F2660EF
S11311F0B22E06C028E030E005C020E130E002C095
S113120020E132E0F801B7FE07C06081718182817C
S113121093810C5F1F4F06C06081718180E090E074
S11312200E5F1F4FA301F1D0882E8618FB2DFF7788
S11312303F2E36FE0DC0232D2E7FA22E891458F486
S113124034FE0BC032FC09C0832D8E7EA82E05C04F
S1131250B82CA32C03C0B82C01C0B92CA4FE0FC019
S1131260FE01E80DF11D8081803321F49A2D997ED1
S1131270A92E09C0A2FE06C0B394B39404C08A2D5B
S1131280867809F0B394A3FC10C0A0FE06C0B21483
S113129080F4280C922C9B180DC0B21458F4B6019B
S11312A080E290E076D0B394F8CFB21418F42B18FF
S11312B002C0982C212CA4FE0FC0B60180E390E05C
S11312C068D0A2FE16C0A1FC03C088E790E002C06B
S11312D088E590E0B6010CC08A2D867851F0A1FE15
S11312E002C08BE201C080E2A7FC8DE2B60190E06F
S11312F050D0891430F4B60180E390E04AD09A9437
S1131300F8CF8A94F301E80DF11D8081B60190E0D5
S113131040D08110F6CF222009F44ECEB60180E2EF
S113132090E037D02A94F7CFF6018681978102C0E6
S11313308FEF9FEF2B960FB6F894DEBF0FBECDBF95
S1131340DF91CF911F910F91FF90EF90DF90CF909D
S1131350BF90AF909F908F907F906F905F904F90D1
S11313603F902F900895FC0105906150704001104A
S1131370D8F7809590958E0F9F1F0895FC016150BA
S1131380704001900110D8F7809590958E0F9F1FA3
S113139008950F931F93CF93DF93FB01238121FDC6
S11313A003C08FEF9FEF2CC022FF16C046815781E8
S11313B0248135814217530744F4A081B1819D01F2
S11313C02F5F3F4F318320838C93268137812F5F9A
S11313D03F4F3783268314C08B01EC01FB0100844B
S11313E0F185E02D1995892BE1F6D80116968D919A
S11313F09C911797019617969C938E931697CE01FE
S1131400DF91CF911F910F910895FA01AA272830F7
S113141051F1203181F1E8946F936E7F6E5F7F4FBD
S11314208F4F9F4FAF4FB1E03ED0B4E03CD0670F39
S1131430781F891F9A1FA11D680F791F8A1F911D8C
S1131440A11D6A0F711D811D911DA11D20D009F4DC
S113145068943F912AE0269F11243019305D31931E
S1131460DEF6CF010895462F4770405D4193B3E007
S11314700FD0C9F7F6CF462F4F70405D4A3318F0AE
S1131480495D31FD4052419302D0A9F7EACFB4E05F
S1131490A6959795879577956795BA95C9F7009717
S11314A06105710508959B01AC010A2E06945795B8
S11314B0479537952795BA95C9F7620F731F841F0F
S10D14C0951FA01D0895F894FFCFB6
S11314CA0000EC03200000000003000000009D025D
S11314DA8A020000C600CE00D6003601656C656D2E
S11314EA656E747320617265206E6F742065717500
S11314FA616C00656C656D656E7420213D206578AC
S113150A70656374656400656C656D656E7420212D
S113151A3D203100656C656D656E7420213D203077
S113152A000D49276D20696E207468652066756E02
S113153A6374696F6E0A0D000D496D20696E20741B
S113154A686520636F7079536571000D56616C315B
S113155A3A2025640A000D56616C323A2025640A41
S113156A006572726F723A2025730A0D00414C4C61
S113157A205445535453205041535345440A0D00B3
S113158A54657374732072756E3A2025640A0000D8
S9030000FC
